:020000040000FA
:04000000EDEF06F02A
:08000800056ED8CF06F0E0CF31
:1000100007F00001E9CF0DF0EACF08F0E1CF09F0D9
:10002000E2CF0AF0D9CF0BF0DACF0CF0F3CF14F017
:10003000F4CF15F0FACF16F000C00FF001C010F0A9
:1000400002C011F003C012F004C013F0A0AA2CEFFC
:1000500000F0A1BA06EF06F00FC000F010C001F0EA
:1000600011C002F012C003F013C004F00E8E0DC0D8
:10007000E9FF08C0EAFF09C0E1FF0AC0E2FF0BC0C8
:10008000D9FF0CC0DAFF14C0F3FF15C0F4FF16C08F
:10009000FAFF055007C0E0FF06C0D8FF1000F76A5E
:1000A000AE0FF66E000EF7220900F55012000403A1
:1000B0000000000000000000000000000000F76ADF
:1000C000CE0FF66E000EF7220900F5501200400028
:1000D0000800000000000000000000000000000018
:1000E0000000000000000000000000000000F76AAF
:1000F000FE0FF66E000EF7220900F5501200050102
:100100000902A1010901A10005091901290315002E
:100110002501950375018102950175058101050190
:100120000930093109381581257F75089503810645
:10013000C0C0F76A420FF66E010EF7220900F550B3
:1001400012000000F76A540FF66E010EF722090044
:10015000F55012003400F76A660FF66E010EF722B2
:100160000900F550120009022200010100C0320905
:1001700004000001030102000921000100012234F2
:10018000000705810308000AF76A980FF66E010E52
:10019000F7220900F55012000100F76AAA0FF66E67
:1001A000010EF7220900F5501200120110010000A3
:1001B000004061042200000101020001F76ACC0F37
:1001C000F66E010EF7220900F550120000040C0033
:1001D000F76AE00FF66E010EF7220900F5501200E3
:1001E0000403090408034300430053001C034300B5
:1001F00043005300200055005300420020004D00F2
:100200006F007500730065006D926994689411EF3A
:1002100006F06A6A68921AEF06F03F6A3F520AE1F6
:10022000036A3F50240FE96E000E0320EA6EEF6A66
:100230003F2AF4D71A6A010E1B6E196A000C010ED0
:10024000486E48500F080EE3700E4824016E0F0EE2
:10025000036ED8B0032A01C0E9FF03C0EAFFEF6ACA
:10026000482AEFD71E6A1D6A000C400E0401016F78
:10027000050E036F026B880E006F046B050E076F8F
:10028000400E066F0001000C6A6A686A9F0E6B6E72
:10029000390E696E6E6AC1DFD2DF160E706E68A607
:1002A00002D06896FCD76D98E0DF030E1F6E20EF3A
:1002B00006F0698468986D8226EF06F0689C2CEF42
:1002C00006F070A002D0D1DF7090689A32EF06F08D
:1002D00043C020F0000CFF0E206E000C416A235238
:1002E0003EE041503F083BE31C50FC0F2BE2040F63
:1002F000B9EF01F0036A2250F2CF43F0F29E2BDFF8
:1003000043BEF28E426E1ED0036A2250F2CF43F0FB
:10031000F29EEDDE43BEF28E426E14D0036A22508E
:10032000F2CF43F0F29E54DF43BEF28E426E0AD00B
:10033000036A2250F2CF43F0F29E2FDF43BEF28ECB
:10034000426E00D0222A23064150412A036A400F00
:10035000E96E050E0320EA6E42C0EFFFC0D72352BC
:1003600004E14150400801E0196A41C043F0B0DFA8
:10037000000CE824F76AF7368D0FF66E030EF722AD
:100380000A00F550FA6E0800F550F96EF402080301
:100390001C033003226A1C6A05010351010A000193
:1003A00009E0030A0CE0010A0DE0220A22E0030A38
:1003B00032E058D0120E236E030E1C6E55D0220E62
:1003C000236E52D0020E1C6E036A05010251F2CF59
:1003D00041F0F29E0001F2DE41BEF28E226E036A0F
:1003E0002250F2CF41F0F29EF3DE41BEF28E236E38
:1003F0003BD0120E226E223C01D00BD0036A225059
:10040000F2CF41F0F29EA7DE41BEF28E236E2CD0D9
:1004100002D061DF35D0D89005010435036AF2CFF0
:1004200041F0F29E000185DE0900F5CF03F041BEE8
:10043000F28E226E223C01D013D0010E1C6ED89099
:1004400005010435036AF2CF41F0F29E00017ADE25
:100450000900F5CF03F041BEF28E236E05D002D025
:100460003ADF0ED038DF0CD00501075305E12350E9
:10047000065D02E206C523F0010E196E00012EDFB3
:10048000000C405204E1040E1F6ED9DEC1D0050EEF
:100490001F6E436E800E426E010E416E41500F087A
:1004A000D8A0B6D0446A036A4150F2CF48F0F29E19
:1004B000F6DD48BEF28E000A51E0040E446ED8907C
:1004C0004134036AF2CF48F0F29EF9DD0900F5CF1E
:1004D00003F048BEF28E456E03C046F04150080D51
:1004E000F350010F016E040E036ED8B0032A01C051
:1004F000E9FF03C0EAFF45C0EFFF4150080DF3508C
:10050000020F016E040E036ED8B0032A01C0E9FF8A
:1005100003C0EAFF43C0ECFFED5242C0EFFFD890AA
:100520004134036AF2CF48F0F29EC9DD0900F5CFED
:1005300003F048BEF28E422603504322880E476ED7
:1005400046B0478046B247824150080DF3CF01F0D4
:10055000040E01C0E9FFEA6E47C0EFFF036A415095
:10056000F2CF48F0F29E9BDD48BEF28E000A31E0E9
:1005700044824150080DF350060F016E040E036EC5
:10058000D8B0032A01C0E9FF03C0EAFF43C0ECFF73
:10059000ED5242C0EFFFD8904134036AF2CF48F0E9
:1005A000F29E8DDD0900F5CF03F048BEF28E4226A3
:1005B000035043224150080DF350040F016E040E06
:1005C000036ED8B0032A01C0E9FF03C0EAFF400E62
:1005D000EF6E4450060802E10E0E446E036A41506D
:1005E000F2CF48F0F29E5BDD48BEF28E020801E0D9
:1005F0004488700E4124016E0F0E036ED8B0032A9A
:1006000001C0E9FF03C0EAFF44C0EFFF412A46D71B
:1006100054EF03F00501015100010DE0010A14E05F
:10062000020A1EE0060A27E0030A2CE00E0A2CE06C
:10063000010A30E03DD01BC040F50501416B020EC0
:10064000436E000145DE36D00501022D06D0010EB5
:100650001B16436A00013CDE02D000013CDE2AD0BA
:100660000501022D05D01B82436A000131DE02D054
:10067000000131DE1FD0020E196E02C521F0436A5F
:1006800027DE18D087DE16D01AC040F5010E436E63
:100690001FDE10D005010251010808E302C51AF05F
:1006A00002C540F00001EDD6436A12DE000102D01F
:1006B00012DE00D08AEF04F01AC040F005010151AB
:1006C000000107E00A0A0DE0010A2DE00D0A3DE0F5
:1006D0003ED00501406B416B020E436E0001F8DD18
:1006E00038D040521EE0010E405C036AF2CF42F067
:1006F000F29E4ADD42BEF28E016E0501045DD8A075
:1007000002D000010ED0036A0451240FE96E000EDE
:100710000320EA6EEFCF40F5010E436E0001D8DDF5
:1007200001D0D9DD16D040520EE0036A0501045114
:10073000240FE96E000E0320EA6E02C5EFFF436A44
:100740000001C6DD01D0C7DD04D024DE02D0C3DD48
:1007500000D08AEF04F0419040BE4180409E41A00D
:1007600010D0036A4050F2CF42F0F29E98DC42BEB5
:10077000F28E000A02E1000E01D0010E016E10D0CF
:100780000FD0036A4050F2CF42F0F29E88DC42BEA6
:10079000F28E000A02E1000E01D0010E016E00D0BF
:1007A00042EF04F0419040BE4180409E41A010D0F5
:1007B0004050080DF350040F016E040E036ED8B0C4
:1007C000032A01C0E9FF03C0EAFF880EEF6E09D0DB
:1007D0004050080DF3CF01F0040E01C0E9FFEA6EAE
:1007E000EF6A51EF04F0419040BE4180409E41A02D
:1007F00010D04050080DF350040F016E040E036E2C
:10080000D8B0032A01C0E9FF03C0EAFF840EEF6EEF
:100810000AD04050080DF3CF01F0040E01C0E9FFEB
:10082000EA6E840EEF6E57EF04F0419040BE4180B7
:10083000409E41A010D04050080DF350040F016EAF
:10084000040E036ED8B0032A01C0E9FF03C0EAFF1B
:10085000EFCF42F00AD04050080DF3CF01F0040E64
:1008600001C0E9FFEA6EEFCF42F042AE02D042B4DF
:1008700002D0000E01D0010E016E61EF04F004C53C
:1008800040F069D7015229E005010151010A000138
:1008900005E0020A09E0030A0DE01DD004C540F09E
:1008A00081D7436A15DD19D004C540F09CD7436A4F
:1008B0000FDD13D00501406B416B04C540F0000112
:1008C000B4D7015204E0010E0501406F0001020E91
:1008D000436EFEDC02D0FFDC00D08AEF04F005019D
:1008E000015100D00001F7DC00D08AEF04F0196A52
:1008F000050100517F0B000107E0010A06E0030A31
:1009000005E0230A04E004D085D6D6D6B8D7E7D7C9
:10091000E2DC00D0B1EF05F04050080DF3CF01F05C
:10092000040E01C0E9FFEA6EEFCF42F04150020829
:1009300006E142AC02D0416A02D0010E416E415044
:10094000030812E1840E426E4050080DF350040F6C
:10095000016E040E036ED8B0032A01C0E9FF03C084
:10096000EAFF840EEF6E09D0412C03D0C80E426E10
:1009700004D0415202E1880E426E036A010E026EFB
:100980004050006E05E0D89002360336002EFBD7AB
:100990000250FF0A006EFF0E031A00501D1603508E
:1009A0001E16D8904034036AF2CF45F0F29E5FECF9
:1009B00000F00900F5CF03F045BEF28E436E03C090
:1009C00044F04050080DF350010F016E040E036E09
:1009D000D8B0032A01C0E9FF03C0EAFF43C0EFFF1C
:1009E00044B0428044B242824050080DF3CF01F03F
:1009F000040E01C0E9FFEA6E42C0EFFF000C405058
:100A0000080DF350040F016E040E036ED8B0032AD4
:100A100001C0E9FF03C0EAFFEFCF44F044BE5BD062
:100A20004050080DF350050F016E040E036ED8B050
:100A3000032A01C0E9FF03C0EAFF41C0EFFF4350B2
:100A4000020816E14050080DF350040F016E040E29
:100A5000036ED8B0032A01C0E9FF03C0EAFFEFCF5D
:100A600044F044AC02D0436A02D0010E436E13D06E
:100A70004350040810E14050080DF3CF01F0040E7C
:100A800001C0E9FFEA6EEFCF44F044AC03D0010EA1
:100A9000436E01D0436A432C03D0C80E446E04D089
:100AA000435202E1880E446E42B0448042B2448216
:100AB0004050080DF350040F016E040E036ED8B0C1
:100AC000032A01C0E9FF03C0EAFF44C0EFFF010EA3
:100AD000016E03D000D0000E016E000C405203E105
:100AE00035EC01F00FD0036A010E026E4050006E2B
:100AF00005E0D89002360336002EFBD702501D12B7
:100B000003501E12000C41C06EFF415203E0040E60
:100B10001F6E02D0020E1F6E93EF05F01A6A196A5B
:100B200021C041F0F0D7A0EF05F0405209E1192CA7
:100B300003D06EEC01F004D01950020801E1EED7A9
:100B4000000C6C303F6E3F323F321F0E3F166C522E
:100B50003BE1040100513C0B34081BE1046B000134
:100B6000C6D6203C05D0406A030E416ED5DE0ED0BD
:100B7000406A020E416ED0DE2050FE0807E0406A57
:100B8000426A20C041F0040E436E39DF6D9819D0DF
:100B9000040100513C0B040815E1406A00019EDF8E
:100BA000406A020E416EB8DE2050FE080AE0203C8A
:100BB00001D007D0406A426A20C041F0010E436E66
:100BC0001EDF040120D000016C50040812E1FF0E6A
:100BD000206E406AAADF203C01D008D0406A426AF9
:100BE00020C041F0020E436E0ADF02D035EC01F066
:100BF00009D06CB404D03FC040F070DF03D03FC0D8
:100C000040F093DF0401000137EF06F01F5201E1CD
:100C10002FD068522DE068A404D069A402D004EF5C
:100C200001F06DA201D024D068A204D069A202D044
:100C300009EF01F068A004D069A002D044EF01F0F0
:100C400068A804D069A802D059EF01F068AC04D0BC
:100C500069AC02D05EEF01F068AA04D069AA02D0A4
:100C600061EF01F068A604D069A602D06AD7689641
:100C7000A19A2CEF00F06D6A696A080E6F6E9450AD
:100C80003009946E1F6A186AF2BE188EF29E0DEC3F
:100C900001F018BEF28E1E6A1D6A72EF06F0186A25
:100CA000F2BE188EF29E0DEC01F018BEF28E6D6A47
:100CB000140E6F6E696A6D86010E1F6E63EF06F08B
:100CC0006DB601D0ECD71F2C0BD06DBA09D0686A75
:100CD000696AA08AC00EF212110E696E020E1F6EB2
:100CE000000CC9D7EDDF1F500208FCE113EF07F03D
:100CF0001A5202E10400FCD715EF07F0EA6A2E0E43
:100D0000E96EEF500EE00F0E016E006A002EFED766
:100D1000012EFBD78F0E006E002EFED70000EF2EA7
:100D2000F2D727EF07F02D50080DF350040F016E96
:100D3000040E036ED8B0032A01C0E9FF03C0EAFF26
:100D4000EFCF35F035BE45D02D50080DF350060FCE
:100D5000016E040E036ED8B0032A01C0E9FF03C080
:100D6000EAFFECCF03F0ED52EFCF36F003C037F0DF
:100D7000346A336A3450315C1AE303E13050335C37
:100D800016E22EC0E9FF2FC0EAFFEFCF3AF037C0DE
:100D9000EAFF36C0E9FF3AC0EFFF362AD8B4372A57
:100DA0002E2AD8B42F2A332AD8B4342AE3D7186A83
:100DB000F2BE188EF29E2DC040F031C042F030C01D
:100DC00041F032C043F01BDE18BEF28E015003D05A
:100DD00000D0000E016E58EF07F0F86AD09E0D8E1D
:100DE000EA6AE96AC150C00B0F09C16E070EB46E02
:100DF0001F6A236A296A2A6A2B6A2C902C92C15096
:100E0000C00B0F09C16EC080C082C084C09EC2806A
:100E1000000E016EC250C30B0110C26E000E926E26
:100E2000926A896A5ED74CDF63D7929489848984F9
:100E30009294929689969292899242DF1A5238E061
:100E40002CB008D0280E2D6EFA0E2E6E57D72D2EF0
:100E5000FBD72C802CA02CD0938081A007D02B50C6
:100E6000020801E02C82020E2B6E04D02B5201E00E
:100E70002C822B6A2B50020805E192948984929669
:100E8000898604D092948994929689962CA210D047
:100E90002BC025F0266A276A286A010E2D6E2F6A5C
:100EA000250E2E6E316A040E306E020E326E3BD766
:040EB000C4D70300A0
:020000040030CA
:0E000000240E3E1E008381000FC00FE00F4053
:00000001FF
;PIC18F2550
